SERV                                                                           78001H  S078001H  RJ                                                     DESADVD  96AUNA052151120    0831    20/11/201508:49:081448005740414-54588                1530                278392                             65876     CORAIL-RJ  
AT0100278392           201511200831                                                                                                                                                                                                                                                                                          
AD0300351160335349        00000000000829AADKG               201511200900                                                                                                                                                                                                                                                     
AC18000935327198552       10 94610L                                                                                                                                                                                                                                                                                          
AC0500000254206547900181  5                                                                                                                                                                                                                                                                                                  
AH0200CJ6JM5                                                                                                                                                                                                                                                                                                                 
AC06000935327198552006    10                                                                                                                                                                                                                                                                                                 
AD0400GEFCO            TE                                                                                                                                                                                                                                                                                                    
AA0200000001+0000000000120UN                                                                                                                                                                                                                                                                                                 
AB0200000005+0000000000024UN                                                                                                                                                                                                                                                                                                 
AB030062124            92                                                                                                                                                                                                                                                                                                    
AB040058470743                                                                                                                                                                                                                                                                                                               
AB050058470743         J00991200                                                                                                                                                                                                                                                                                             
AB040058470784                                                                                                                                                                                                                                                                                                               
AB050058470784         J00997000                                                                                                                                                                                                                                                                                             
AB040058471078                                                                                                                                                                                                                                                                                                               
AB050058471078         J00990900                                                                                                                                                                                                                                                                                             
AB040058471121                                                                                                                                                                                                                                                                                                               
AB050058471121         J01017500                                                                                                                                                                                                                                                                                             
AB040058471124                                                                                                                                                                                                                                                                                                               
AB050058471124         J01017600                                                                                                                                                                                                                                                                                             
AA04009673173780                         00                                                                                                                                                                                                                                                                                  
AA090087031002                                                                                                                                                                                                                                                                                                               
AA0100DE                                                                                                                                                                                                                                                                                                                     
SERV                                                                           78001H  S078001H  RJ                                                     DESADVD  96AUNA052151117    1221    20/11/201508:49:081448005740414-54588                P0014061591         0051274                            65936     CORAIL-RJ  
AT01000051274          201511171221                                                                                                                                                                                                                                                                                          
AD03003510051274          00000000000062AADKG               201511171221                                                                                                                                                                                                                                                     
AC18000941B36888337       10 86306K                                                                                                                                                                                                                                                                                          
AC0500000254206547900181  5                                                                                                                                                                                                                                                                                                  
AH0200CJ6JM5                                                                                                                                                                                                                                                                                                                 
AC06000941B36888337       10                                                                                                                                                                                                                                                                                                 
AD04002821CRG          TE                                                                                                                                                                                                                                                                                                    
AA0200000001+0000000000090UN                                                                                                                                                                                                                                                                                                 
AB0200000006+0000000000015UN                                                                                                                                                                                                                                                                                                 
AB030062405            92                                                                                                                                                                                                                                                                                                    
AB0400367814                                                                                                                                                                                                                                                                                                                 
AB05001420332          J02801900                                                                                                                                                                                                                                                                                             
AA070052438                          20160514                                                                                                                                                                                                                                                                                
AB05001420331          J02801900                                                                                                                                                                                                                                                                                             
AA070052438                                                                                                                                                                                                                                                                                                                  
AB05001420330          J02801900                                                                                                                                                                                                                                                                                             
AA070052438                                                                                                                                                                                                                                                                                                                  
AB05001420329          J02801900                                                                                                                                                                                                                                                                                             
AA070052438                                                                                                                                                                                                                                                                                                                  
AB05001420328          J02801900                                                                                                                                                                                                                                                                                             
AA070052438                                                                                                                                                                                                                                                                                                                  
AB05001420333          J02801900                                                                                                                                                                                                                                                                                             
AA070052438                                                                                                                                                                                                                                                                                                                  
AA04009657427480                         00                                                                                                                                                                                                                                                                                  
AA090087031693                                                                                                                                                                                                                                                                                                               
AA0100ES                                                                                                                                                                                                                                                                                                                     
AA0200000002+0000000000216UN                                                                                                                                                                                                                                                                                                 
AB0200000006+0000000000036UN                                                                                                                                                                                                                                                                                                 
AB030062404            92                                                                                                                                                                                                                                                                                                    
AB0400367813                                                                                                                                                                                                                                                                                                                 
AB05001403372          J02802000                                                                                                                                                                                                                                                                                             
AA070051941                          20160410                                                                                                                                                                                                                                                                                
AB05001403371          J02802000                                                                                                                                                                                                                                                                                             
AA070051941                                                                                                                                                                                                                                                                                                                  
AB05001403370          J02802000                                                                                                                                                                                                                                                                                             
AA070051941                                                                                                                                                                                                                                                                                                                  
AB05001403369          J02802000                                                                                                                                                                                                                                                                                             
AA070051941                                                                                                                                                                                                                                                                                                                  
AB05001403368          J02802000                                                                                                                                                                                                                                                                                             
AA070051941                                                                                                                                                                                                                                                                                                                  
AB05001403373          J02802000                                                                                                                                                                                                                                                                                             
AA070051941                                                                                                                                                                                                                                                                                                                  
AA04009657427780                         00                                                                                                                                                                                                                                                                                  
AA090087031693                                                                                                                                                                                                                                                                                                               
AA0100ES                                                                                                                                                                                                                                                                                                                     
SERV                                                                           78001H  S078001H  RJ                                                     DESADVD  96AUNA052151118    1334    20/11/201508:49:081448005740414-54588                P0014387741         0051293                            65946     CORAIL-RJ  
AT01000051293          201511181334                                                                                                                                                                                                                                                                                          
AD03003510051293          00000000000211AADKG               201511181334                                                                                                                                                                                                                                                     
AC18000941B36888337       10 86306K                                                                                                                                                                                                                                                                                          
AC0500000254206547900181  5                                                                                                                                                                                                                                                                                                  
AH0200CJ6JM5                                                                                                                                                                                                                                                                                                                 
AC06000941B36888337       10                                                                                                                                                                                                                                                                                                 
AD04002821CRG          TE                                                                                                                                                                                                                                                                                                    
AA0200000001+0000000000180UN                                                                                                                                                                                                                                                                                                 
AB0200000012+0000000000015UN                                                                                                                                                                                                                                                                                                 
AB030062405            92                                                                                                                                                                                                                                                                                                    
AB0400367918                                                                                                                                                                                                                                                                                                                 
AB05001402979          J00278300                                                                                                                                                                                                                                                                                             
AA070051929                          20160410                                                                                                                                                                                                                                                                                
AB05001402978          J00278300                                                                                                                                                                                                                                                                                             
AA070051929                                                                                                                                                                                                                                                                                                                  
AB05001402977          J00278300                                                                                                                                                                                                                                                                                             
AA070051929                                                                                                                                                                                                                                                                                                                  
AB05001402976          J00278300                                                                                                                                                                                                                                                                                             
AA070051929                                                                                                                                                                                                                                                                                                                  
AB05001402975          J00278300                                                                                                                                                                                                                                                                                             
AA070051929                                                                                                                                                                                                                                                                                                                  
AB05001402974          J00278300                                                                                                                                                                                                                                                                                             
AA070051929                                                                                                                                                                                                                                                                                                                  
AB0400367915                                                                                                                                                                                                                                                                                                                 
AB05001420338          J00278400                                                                                                                                                                                                                                                                                             
AA070052438                          20160514                                                                                                                                                                                                                                                                                
AB05001420339          J00278400                                                                                                                                                                                                                                                                                             
AA070052438                                                                                                                                                                                                                                                                                                                  
AB05001420337          J00278400                                                                                                                                                                                                                                                                                             
AA070052438                                                                                                                                                                                                                                                                                                                  
AB05001420336          J00278400                                                                                                                                                                                                                                                                                             
AA070052438                                                                                                                                                                                                                                                                                                                  
AB05001420335          J00278400                                                                                                                                                                                                                                                                                             
AA070052438                                                                                                                                                                                                                                                                                                                  
AB05001420334          J00278400                                                                                                                                                                                                                                                                                             
AA070052438                                                                                                                                                                                                                                                                                                                  
AA04009657427480                         00                                                                                                                                                                                                                                                                                  
AA090087031693                                                                                                                                                                                                                                                                                                               
AA0100ES                                                                                                                                                                                                                                                                                                                     
AA0200000002+0000000000270UN                                                                                                                                                                                                                                                                                                 
AB0200000018+0000000000015UN                                                                                                                                                                                                                                                                                                 
AB030062405            92                                                                                                                                                                                                                                                                                                    
AB0400367927                                                                                                                                                                                                                                                                                                                 
AB05001397611          J00278700                                                                                                                                                                                                                                                                                             
AA070051760                          20160330                                                                                                                                                                                                                                                                                
AB05001397610          J00278700                                                                                                                                                                                                                                                                                             
AA070051760                                                                                                                                                                                                                                                                                                                  
AB05001397609          J00278700                                                                                                                                                                                                                                                                                             
AA070051760                                                                                                                                                                                                                                                                                                                  
AB05001397608          J00278700                                                                                                                                                                                                                                                                                             
AA070051760                                                                                                                                                                                                                                                                                                                  
AB05001397607          J00278700                                                                                                                                                                                                                                                                                             
AA070051760                                                                                                                                                                                                                                                                                                                  
AB05001397606          J00278700                                                                                                                                                                                                                                                                                             
AA070051760                                                                                                                                                                                                                                                                                                                  
AB0400367926                                                                                                                                                                                                                                                                                                                 
AB05001397617          J00278800                                                                                                                                                                                                                                                                                             
AA070051760                          20160330                                                                                                                                                                                                                                                                                
AB05001397616          J00278800                                                                                                                                                                                                                                                                                             
AA070051760                                                                                                                                                                                                                                                                                                                  
AB05001397615          J00278800                                                                                                                                                                                                                                                                                             
AA070051760                                                                                                                                                                                                                                                                                                                  
AB05001397614          J00278800                                                                                                                                                                                                                                                                                             
AA070051760                                                                                                                                                                                                                                                                                                                  
AB05001397613          J00278800                                                                                                                                                                                                                                                                                             
AA070051760                                                                                                                                                                                                                                                                                                                  
AB05001397612          J00278800                                                                                                                                                                                                                                                                                             
AA070051760                                                                                                                                                                                                                                                                                                                  
AB0400367928                                                                                                                                                                                                                                                                                                                 
AB05001403170          J00278900                                                                                                                                                                                                                                                                                             
AA070051936                          20160410                                                                                                                                                                                                                                                                                
AB05001403171          J00278900                                                                                                                                                                                                                                                                                             
AA070051936                                                                                                                                                                                                                                                                                                                  
AB05001403169          J00278900                                                                                                                                                                                                                                                                                             
AA070051936                                                                                                                                                                                                                                                                                                                  
AB05001403168          J00278900                                                                                                                                                                                                                                                                                             
AA070051936                                                                                                                                                                                                                                                                                                                  
AB05001403167          J00278900                                                                                                                                                                                                                                                                                             
AA070051936                                                                                                                                                                                                                                                                                                                  
AB05001403166          J00278900                                                                                                                                                                                                                                                                                             
AA070051936                                                                                                                                                                                                                                                                                                                  
AA04009657427580                         00                                                                                                                                                                                                                                                                                  
AA090087031693                                                                                                                                                                                                                                                                                                               
AA0100ES                                                                                                                                                                                                                                                                                                                     
AA0200000003+0000000000216UN                                                                                                                                                                                                                                                                                                 
AB0200000006+0000000000036UN                                                                                                                                                                                                                                                                                                 
AB030062404            92                                                                                                                                                                                                                                                                                                    
AB0400367916                                                                                                                                                                                                                                                                                                                 
AB05001402807          J00279100                                                                                                                                                                                                                                                                                             
AA070051920                          20160410                                                                                                                                                                                                                                                                                
AB05001402806          J00279100                                                                                                                                                                                                                                                                                             
AA070051920                                                                                                                                                                                                                                                                                                                  
AB05001402805          J00279100                                                                                                                                                                                                                                                                                             
AA070051920                                                                                                                                                                                                                                                                                                                  
AB05001402804          J00279100                                                                                                                                                                                                                                                                                             
AA070051920                                                                                                                                                                                                                                                                                                                  
AB05001402803          J00279100                                                                                                                                                                                                                                                                                             
AA070051920                                                                                                                                                                                                                                                                                                                  
AB05001402802          J00279100                                                                                                                                                                                                                                                                                             
AA070051920                                                                                                                                                                                                                                                                                                                  
AA04009657427680                         00                                                                                                                                                                                                                                                                                  
AA090087031693                                                                                                                                                                                                                                                                                                               
AA0100ES                                                                                                                                                                                                                                                                                                                     
AA0200000004+0000000000216UN                                                                                                                                                                                                                                                                                                 
AB0200000006+0000000000036UN                                                                                                                                                                                                                                                                                                 
AB030062404            92                                                                                                                                                                                                                                                                                                    
AB0400367917                                                                                                                                                                                                                                                                                                                 
AB05001403374          J00279400                                                                                                                                                                                                                                                                                             
AA070051941                          20160410                                                                                                                                                                                                                                                                                
AB05001403375          J00279400                                                                                                                                                                                                                                                                                             
AA070051941                                                                                                                                                                                                                                                                                                                  
AB05001403376          J00279400                                                                                                                                                                                                                                                                                             
AA070051941                                                                                                                                                                                                                                                                                                                  
AB05001403377          J00279400                                                                                                                                                                                                                                                                                             
AA070051941                                                                                                                                                                                                                                                                                                                  
AB05001403378          J00279400                                                                                                                                                                                                                                                                                             
AA070051941                                                                                                                                                                                                                                                                                                                  
AB05001403379          J00279400                                                                                                                                                                                                                                                                                             
AA070051941                                                                                                                                                                                                                                                                                                                  
AA04009657427780                         00                                                                                                                                                                                                                                                                                  
AA090087031693                                                                                                                                                                                                                                                                                                               
AA0100ES                                                                                                                                                                                                                                                                                                                     
SERV                                                                           78001H  S078001H  RJ                                                     DESADVD  96AUNA052151119    1137    20/11/201508:49:081448005740414-54588                4186                0080483582                         65956     CORAIL-RJ  
AT01000080483582       201511191137                                                                                                                                                                                                                                                                                          
AD03003510010058184       00000000799.98AADKG               201511191134                                                                                                                                                                                                                                                     
AC18000941A58387887       10 09297E                                                                                                                                                                                                                                                                                          
AC0500000254206547900181  5                                                                                                                                                                                                                                                                                                  
AH0200CJ6JM5                                                                                                                                                                                                                                                                                                                 
AC06000941A583878870      10                                                                                                                                                                                                                                                                                                 
AD0400GEFCO            TE                                                                                                                                                                                                                                                                                                    
AA0200000001+0000000000540UN                                                                                                                                                                                                                                                                                                 
AB0200000090+0000000000006UN                                                                                                                                                                                                                                                                                                 
AB030065087            92                                                                                                                                                                                                                                                                                                    
AB0400500179790                                                                                                                                                                                                                                                                                                              
AB0500500178850        J03522900                                                                                                                                                                                                                                                                                             
AB0500500179701        J03522900                                                                                                                                                                                                                                                                                             
AB0500500179702        J03522900                                                                                                                                                                                                                                                                                             
AB0500500179703        J03522900                                                                                                                                                                                                                                                                                             
AB0500500179704        J03522900                                                                                                                                                                                                                                                                                             
AB0500500179705        J03522900                                                                                                                                                                                                                                                                                             
AB0500500179706        J03522900                                                                                                                                                                                                                                                                                             
AB0500500179707        J03522900                                                                                                                                                                                                                                                                                             
AB0500500179708        J03522900                                                                                                                                                                                                                                                                                             
AB0500500179709        J03522900                                                                                                                                                                                                                                                                                             
AB0500500179710        J03522900                                                                                                                                                                                                                                                                                             
AB0500500179711        J03522900                                                                                                                                                                                                                                                                                             
AB0500500179712        J03522900                                                                                                                                                                                                                                                                                             
AB0500500179713        J03522900                                                                                                                                                                                                                                                                                             
AB0500500179714        J03522900                                                                                                                                                                                                                                                                                             
AB0500500179715        J03522900                                                                                                                                                                                                                                                                                             
AB0500500179716        J03522900                                                                                                                                                                                                                                                                                             
AB0500500179717        J03522900                                                                                                                                                                                                                                                                                             
AB0500500179718        J03522900                                                                                                                                                                                                                                                                                             
AB0500500179719        J03522900                                                                                                                                                                                                                                                                                             
AB0500500179720        J03522900                                                                                                                                                                                                                                                                                             
AB0500500179721        J03522900                                                                                                                                                                                                                                                                                             
AB0500500179722        J03522900                                                                                                                                                                                                                                                                                             
AB0500500179723        J03522900                                                                                                                                                                                                                                                                                             
AB0500500179724        J03522900                                                                                                                                                                                                                                                                                             
AB0500500179725        J03522900                                                                                                                                                                                                                                                                                             
AB0500500179726        J03522900                                                                                                                                                                                                                                                                                             
AB0500500179727        J03522900                                                                                                                                                                                                                                                                                             
AB0500500179728        J03522900                                                                                                                                                                                                                                                                                             
AB0500500179729        J03522900                                                                                                                                                                                                                                                                                             
AB0400500179791                                                                                                                                                                                                                                                                                                              
AB0500500179730        J03523000                                                                                                                                                                                                                                                                                             
AB0500500179731        J03523000                                                                                                                                                                                                                                                                                             
AB0500500179732        J03523000                                                                                                                                                                                                                                                                                             
AB0500500179733        J03523000                                                                                                                                                                                                                                                                                             
AB0500500179734        J03523000                                                                                                                                                                                                                                                                                             
AB0500500179735        J03523000                                                                                                                                                                                                                                                                                             
AB0500500179736        J03523000                                                                                                                                                                                                                                                                                             
AB0500500179737        J03523000                                                                                                                                                                                                                                                                                             
AB0500500179738        J03523000                                                                                                                                                                                                                                                                                             
AB0500500179739        J03523000                                                                                                                                                                                                                                                                                             
AB0500500179740        J03523000                                                                                                                                                                                                                                                                                             
AB0500500179741        J03523000                                                                                                                                                                                                                                                                                             
AB0500500179742        J03523000                                                                                                                                                                                                                                                                                             
AB0500500179743        J03523000                                                                                                                                                                                                                                                                                             
AB0500500179744        J03523000                                                                                                                                                                                                                                                                                             
AB0500500179745        J03523000                                                                                                                                                                                                                                                                                             
AB0500500179746        J03523000                                                                                                                                                                                                                                                                                             
AB0500500179747        J03523000                                                                                                                                                                                                                                                                                             
AB0500500179748        J03523000                                                                                                                                                                                                                                                                                             
AB0500500179749        J03523000                                                                                                                                                                                                                                                                                             
AB0500500179750        J03523000                                                                                                                                                                                                                                                                                             
AB0500500179751        J03523000                                                                                                                                                                                                                                                                                             
AB0500500179752        J03523000                                                                                                                                                                                                                                                                                             
AB0500500179753        J03523000                                                                                                                                                                                                                                                                                             
AB0500500179754        J03523000                                                                                                                                                                                                                                                                                             
AB0500500179755        J03523000                                                                                                                                                                                                                                                                                             
AB0500500179756        J03523000                                                                                                                                                                                                                                                                                             
AB0500500179757        J03523000                                                                                                                                                                                                                                                                                             
AB0500500179758        J03523000                                                                                                                                                                                                                                                                                             
AB0500500179759        J03523000                                                                                                                                                                                                                                                                                             
AB0400500179792                                                                                                                                                                                                                                                                                                              
AB0500500179760        J03523100                                                                                                                                                                                                                                                                                             
AB0500500179761        J03523100                                                                                                                                                                                                                                                                                             
AB0500500179762        J03523100                                                                                                                                                                                                                                                                                             
AB0500500179763        J03523100                                                                                                                                                                                                                                                                                             
AB0500500179764        J03523100                                                                                                                                                                                                                                                                                             
AB0500500179765        J03523100                                                                                                                                                                                                                                                                                             
AB0500500179766        J03523100                                                                                                                                                                                                                                                                                             
AB0500500179767        J03523100                                                                                                                                                                                                                                                                                             
AB0500500179768        J03523100                                                                                                                                                                                                                                                                                             
AB0500500179769        J03523100                                                                                                                                                                                                                                                                                             
AB0500500179770        J03523100                                                                                                                                                                                                                                                                                             
AB0500500179771        J03523100                                                                                                                                                                                                                                                                                             
AB0500500179772        J03523100                                                                                                                                                                                                                                                                                             
AB0500500179773        J03523100                                                                                                                                                                                                                                                                                             
AB0500500179774        J03523100                                                                                                                                                                                                                                                                                             
AB0500500179775        J03523100                                                                                                                                                                                                                                                                                             
AB0500500179776        J03523100                                                                                                                                                                                                                                                                                             
AB0500500179777        J03523100                                                                                                                                                                                                                                                                                             
AB0500500179778        J03523100                                                                                                                                                                                                                                                                                             
AB0500500179779        J03523100                                                                                                                                                                                                                                                                                             
AB0500500179780        J03523100                                                                                                                                                                                                                                                                                             
AB0500500179781        J03523100                                                                                                                                                                                                                                                                                             
AB0500500179782        J03523100                                                                                                                                                                                                                                                                                             
AB0500500179783        J03523100                                                                                                                                                                                                                                                                                             
AB0500500179784        J03523100                                                                                                                                                                                                                                                                                             
AB0500500179785        J03523100                                                                                                                                                                                                                                                                                             
AB0500500179786        J03523100                                                                                                                                                                                                                                                                                             
AB0500500179787        J03523100                                                                                                                                                                                                                                                                                             
AB0500500179788        J03523100                                                                                                                                                                                                                                                                                             
AB0500500179789        J03523100                                                                                                                                                                                                                                                                                             
AA04009812771880                         00                                                                                                                                                                                                                                                                                  
AA090087079567                                                                                                                                                                                                                                                                                                               
AA0100ES                                                                                                                                                                                                                                                                                                                     
SERV                                                                           78001H  S078001H  RJ                                                     DESADVD  96AUNA052151118    1655    20/11/201508:49:081448005740414-54588                1519673             0151875                            65966     CORAIL-RJ  
AT01000151875          201511180807                                                                                                                                                                                                                                                                                          
AD0300351                 00000000000724AADKG               201511181500                                                                                                                                                                                                                                                     
AC18000060274089395       5  22666L                                                                                                                                                                                                                                                                                          
AC0500000254206547900181  5                                                                                                                                                                                                                                                                                                  
AH0200CJ6JM5                                                                                                                                                                                                                                                                                                                 
AC06000060274626626       5                                                                                                                                                                                                                                                                                                  
AD0400DW-664-YK        TE                                                                                                                                                                                                                                                                                                    
AA0200000001+0000000000300UN                                                                                                                                                                                                                                                                                                 
AB0200000012+0000000000025UN                                                                                                                                                                                                                                                                                                 
AB030031315            92                                                                                                                                                                                                                                                                                                    
AB040070008836                                                                                                                                                                                                                                                                                                               
AB0500201335           J02780100                                                                                                                                                                                                                                                                                             
AB0500201336           J02780100                                                                                                                                                                                                                                                                                             
